{
  "_format": "hh-sol-artifact-1",
  "contractName": "OmniStaking",
  "sourceName": "contracts/Staking.sol",
  "abi": [
    {
      "inputs": [
        {
          "internalType": "string",
          "name": "name_",
          "type": "string"
        },
        {
          "internalType": "string",
          "name": "symbol_",
          "type": "string"
        },
        {
          "internalType": "uint256",
          "name": "chainIDETH_",
          "type": "uint256"
        },
        {
          "internalType": "uint256",
          "name": "chainIDPOLY_",
          "type": "uint256"
        },
        {
          "internalType": "uint256",
          "name": "chainIDBSC_",
          "type": "uint256"
        },
        {
          "internalType": "address",
          "name": "systemContractAddress",
          "type": "address"
        }
      ],
      "stateMutability": "nonpayable",
      "type": "constructor"
    },
    {
      "inputs": [],
      "name": "NoRewardsToClaim",
      "type": "error"
    },
    {
      "inputs": [],
      "name": "NotAuthorized",
      "type": "error"
    },
    {
      "inputs": [],
      "name": "Overflow",
      "type": "error"
    },
    {
      "inputs": [],
      "name": "SenderNotSystemContract",
      "type": "error"
    },
    {
      "inputs": [],
      "name": "Underflow",
      "type": "error"
    },
    {
      "inputs": [
        {
          "internalType": "uint8",
          "name": "action",
          "type": "uint8"
        }
      ],
      "name": "UnknownAction",
      "type": "error"
    },
    {
      "inputs": [],
      "name": "WrongAmount",
      "type": "error"
    },
    {
      "inputs": [
        {
          "internalType": "uint256",
          "name": "chainID",
          "type": "uint256"
        }
      ],
      "name": "WrongChain",
      "type": "error"
    },
    {
      "anonymous": false,
      "inputs": [
        {
          "indexed": true,
          "internalType": "address",
          "name": "owner",
          "type": "address"
        },
        {
          "indexed": true,
          "internalType": "address",
          "name": "spender",
          "type": "address"
        },
        {
          "indexed": false,
          "internalType": "uint256",
          "name": "value",
          "type": "uint256"
        }
      ],
      "name": "Approval",
      "type": "event"
    },
    {
      "anonymous": false,
      "inputs": [
        {
          "indexed": true,
          "internalType": "address",
          "name": "from",
          "type": "address"
        },
        {
          "indexed": true,
          "internalType": "address",
          "name": "to",
          "type": "address"
        },
        {
          "indexed": false,
          "internalType": "uint256",
          "name": "value",
          "type": "uint256"
        }
      ],
      "name": "Transfer",
      "type": "event"
    },
    {
      "inputs": [
        {
          "internalType": "address",
          "name": "owner",
          "type": "address"
        },
        {
          "internalType": "address",
          "name": "spender",
          "type": "address"
        }
      ],
      "name": "allowance",
      "outputs": [
        {
          "internalType": "uint256",
          "name": "",
          "type": "uint256"
        }
      ],
      "stateMutability": "view",
      "type": "function"
    },
    {
      "inputs": [
        {
          "internalType": "address",
          "name": "spender",
          "type": "address"
        },
        {
          "internalType": "uint256",
          "name": "amount",
          "type": "uint256"
        }
      ],
      "name": "approve",
      "outputs": [
        {
          "internalType": "bool",
          "name": "",
          "type": "bool"
        }
      ],
      "stateMutability": "nonpayable",
      "type": "function"
    },
    {
      "inputs": [
        {
          "internalType": "address",
          "name": "account",
          "type": "address"
        }
      ],
      "name": "balanceOf",
      "outputs": [
        {
          "internalType": "uint256",
          "name": "",
          "type": "uint256"
        }
      ],
      "stateMutability": "view",
      "type": "function"
    },
    {
      "inputs": [
        {
          "internalType": "address",
          "name": "",
          "type": "address"
        }
      ],
      "name": "beneficiary",
      "outputs": [
        {
          "internalType": "address",
          "name": "",
          "type": "address"
        }
      ],
      "stateMutability": "view",
      "type": "function"
    },
    {
      "inputs": [],
      "name": "chainIDBSC",
      "outputs": [
        {
          "internalType": "uint256",
          "name": "",
          "type": "uint256"
        }
      ],
      "stateMutability": "view",
      "type": "function"
    },
    {
      "inputs": [],
      "name": "chainIDETH",
      "outputs": [
        {
          "internalType": "uint256",
          "name": "",
          "type": "uint256"
        }
      ],
      "stateMutability": "view",
      "type": "function"
    },
    {
      "inputs": [],
      "name": "chainIDPOLY",
      "outputs": [
        {
          "internalType": "uint256",
          "name": "",
          "type": "uint256"
        }
      ],
      "stateMutability": "view",
      "type": "function"
    },
    {
      "inputs": [
        {
          "internalType": "address",
          "name": "staker",
          "type": "address"
        },
        {
          "internalType": "uint256",
          "name": "chainID",
          "type": "uint256"
        }
      ],
      "name": "claimRewards",
      "outputs": [],
      "stateMutability": "nonpayable",
      "type": "function"
    },
    {
      "inputs": [],
      "name": "decimals",
      "outputs": [
        {
          "internalType": "uint8",
          "name": "",
          "type": "uint8"
        }
      ],
      "stateMutability": "view",
      "type": "function"
    },
    {
      "inputs": [
        {
          "internalType": "address",
          "name": "spender",
          "type": "address"
        },
        {
          "internalType": "uint256",
          "name": "subtractedValue",
          "type": "uint256"
        }
      ],
      "name": "decreaseAllowance",
      "outputs": [
        {
          "internalType": "bool",
          "name": "",
          "type": "bool"
        }
      ],
      "stateMutability": "nonpayable",
      "type": "function"
    },
    {
      "inputs": [
        {
          "internalType": "address",
          "name": "spender",
          "type": "address"
        },
        {
          "internalType": "uint256",
          "name": "addedValue",
          "type": "uint256"
        }
      ],
      "name": "increaseAllowance",
      "outputs": [
        {
          "internalType": "bool",
          "name": "",
          "type": "bool"
        }
      ],
      "stateMutability": "nonpayable",
      "type": "function"
    },
    {
      "inputs": [
        {
          "internalType": "address",
          "name": "",
          "type": "address"
        },
        {
          "internalType": "uint256",
          "name": "",
          "type": "uint256"
        }
      ],
      "name": "lastStakeTime",
      "outputs": [
        {
          "internalType": "uint256",
          "name": "",
          "type": "uint256"
        }
      ],
      "stateMutability": "view",
      "type": "function"
    },
    {
      "inputs": [],
      "name": "name",
      "outputs": [
        {
          "internalType": "string",
          "name": "",
          "type": "string"
        }
      ],
      "stateMutability": "view",
      "type": "function"
    },
    {
      "inputs": [
        {
          "internalType": "address",
          "name": "",
          "type": "address"
        },
        {
          "internalType": "uint256",
          "name": "",
          "type": "uint256"
        }
      ],
      "name": "omnistake",
      "outputs": [
        {
          "internalType": "uint256",
          "name": "",
          "type": "uint256"
        }
      ],
      "stateMutability": "view",
      "type": "function"
    },
    {
      "inputs": [
        {
          "components": [
            {
              "internalType": "bytes",
              "name": "origin",
              "type": "bytes"
            },
            {
              "internalType": "address",
              "name": "sender",
              "type": "address"
            },
            {
              "internalType": "uint256",
              "name": "chainID",
              "type": "uint256"
            }
          ],
          "internalType": "struct zContext",
          "name": "context",
          "type": "tuple"
        },
        {
          "internalType": "address",
          "name": "zrc20",
          "type": "address"
        },
        {
          "internalType": "uint256",
          "name": "amount",
          "type": "uint256"
        },
        {
          "internalType": "bytes",
          "name": "message",
          "type": "bytes"
        }
      ],
      "name": "onCrossChainCall",
      "outputs": [],
      "stateMutability": "nonpayable",
      "type": "function"
    },
    {
      "inputs": [
        {
          "internalType": "address",
          "name": "staker",
          "type": "address"
        },
        {
          "internalType": "uint256",
          "name": "chainID",
          "type": "uint256"
        }
      ],
      "name": "queryRewards",
      "outputs": [
        {
          "internalType": "uint256",
          "name": "",
          "type": "uint256"
        }
      ],
      "stateMutability": "view",
      "type": "function"
    },
    {
      "inputs": [],
      "name": "rewardRateBSC",
      "outputs": [
        {
          "internalType": "uint256",
          "name": "",
          "type": "uint256"
        }
      ],
      "stateMutability": "view",
      "type": "function"
    },
    {
      "inputs": [],
      "name": "rewardRateBTC",
      "outputs": [
        {
          "internalType": "uint256",
          "name": "",
          "type": "uint256"
        }
      ],
      "stateMutability": "view",
      "type": "function"
    },
    {
      "inputs": [],
      "name": "rewardRateETH",
      "outputs": [
        {
          "internalType": "uint256",
          "name": "",
          "type": "uint256"
        }
      ],
      "stateMutability": "view",
      "type": "function"
    },
    {
      "inputs": [],
      "name": "rewardRatePOLY",
      "outputs": [
        {
          "internalType": "uint256",
          "name": "",
          "type": "uint256"
        }
      ],
      "stateMutability": "view",
      "type": "function"
    },
    {
      "inputs": [],
      "name": "symbol",
      "outputs": [
        {
          "internalType": "string",
          "name": "",
          "type": "string"
        }
      ],
      "stateMutability": "view",
      "type": "function"
    },
    {
      "inputs": [],
      "name": "systemContract",
      "outputs": [
        {
          "internalType": "contract SystemContract",
          "name": "",
          "type": "address"
        }
      ],
      "stateMutability": "view",
      "type": "function"
    },
    {
      "inputs": [],
      "name": "totalSupply",
      "outputs": [
        {
          "internalType": "uint256",
          "name": "",
          "type": "uint256"
        }
      ],
      "stateMutability": "view",
      "type": "function"
    },
    {
      "inputs": [
        {
          "internalType": "address",
          "name": "to",
          "type": "address"
        },
        {
          "internalType": "uint256",
          "name": "amount",
          "type": "uint256"
        }
      ],
      "name": "transfer",
      "outputs": [
        {
          "internalType": "bool",
          "name": "",
          "type": "bool"
        }
      ],
      "stateMutability": "nonpayable",
      "type": "function"
    },
    {
      "inputs": [
        {
          "internalType": "address",
          "name": "from",
          "type": "address"
        },
        {
          "internalType": "address",
          "name": "to",
          "type": "address"
        },
        {
          "internalType": "uint256",
          "name": "amount",
          "type": "uint256"
        }
      ],
      "name": "transferFrom",
      "outputs": [
        {
          "internalType": "bool",
          "name": "",
          "type": "bool"
        }
      ],
      "stateMutability": "nonpayable",
      "type": "function"
    },
    {
      "inputs": [
        {
          "internalType": "address",
          "name": "",
          "type": "address"
        }
      ],
      "name": "withdraw",
      "outputs": [
        {
          "internalType": "bytes",
          "name": "",
          "type": "bytes"
        }
      ],
      "stateMutability": "view",
      "type": "function"
    }
  ],
  "bytecode": "0x610100604052600a6005556103e8600655606460075560016008553480156200002757600080fd5b50604051620034e4380380620034e483398181016040528101906200004d91906200023a565b8585816003908051906020019062000067929190620000de565b50806004908051906020019062000080929190620000de565b5050508073ffffffffffffffffffffffffffffffffffffffff1660808173ffffffffffffffffffffffffffffffffffffffff1660601b815250508360a081815250508260c081815250508160e081815250505050505050506200050a565b828054620000ec90620003e7565b90600052602060002090601f0160209004810192826200011057600085556200015c565b82601f106200012b57805160ff19168380011785556200015c565b828001600101855582156200015c579182015b828111156200015b5782518255916020019190600101906200013e565b5b5090506200016b91906200016f565b5090565b5b808211156200018a57600081600090555060010162000170565b5090565b6000620001a56200019f846200033d565b62000314565b905082815260208101848484011115620001c457620001c3620004b6565b5b620001d1848285620003b1565b509392505050565b600081519050620001ea81620004d6565b92915050565b600082601f830112620002085762000207620004b1565b5b81516200021a8482602086016200018e565b91505092915050565b6000815190506200023481620004f0565b92915050565b60008060008060008060c087890312156200025a5762000259620004c0565b5b600087015167ffffffffffffffff8111156200027b576200027a620004bb565b5b6200028989828a01620001f0565b965050602087015167ffffffffffffffff811115620002ad57620002ac620004bb565b5b620002bb89828a01620001f0565b9550506040620002ce89828a0162000223565b9450506060620002e189828a0162000223565b9350506080620002f489828a0162000223565b92505060a06200030789828a01620001d9565b9150509295509295509295565b60006200032062000333565b90506200032e82826200041d565b919050565b6000604051905090565b600067ffffffffffffffff8211156200035b576200035a62000482565b5b6200036682620004c5565b9050602081019050919050565b6000620003808262000387565b9050919050565b600073ffffffffffffffffffffffffffffffffffffffff82169050919050565b6000819050919050565b60005b83811015620003d1578082015181840152602081019050620003b4565b83811115620003e1576000848401525b50505050565b600060028204905060018216806200040057607f821691505b6020821081141562000417576200041662000453565b5b50919050565b6200042882620004c5565b810181811067ffffffffffffffff821117156200044a576200044962000482565b5b80604052505050565b7f4e487b7100000000000000000000000000000000000000000000000000000000600052602260045260246000fd5b7f4e487b7100000000000000000000000000000000000000000000000000000000600052604160045260246000fd5b600080fd5b600080fd5b600080fd5b600080fd5b6000601f19601f8301169050919050565b620004e18162000373565b8114620004ed57600080fd5b50565b620004fb81620003a7565b81146200050757600080fd5b50565b60805160601c60a05160c05160e051612f7a6200056a60003960008181610aeb0152610c48015260008181610ab90152610f2e01526000818161099c0152610a87015260008181610a6001528181610d1801526117a30152612f7a6000f3fe608060405234801561001057600080fd5b506004361061018e5760003560e01c80639a99b4f0116100de578063c5af465311610097578063dd62ed3e11610071578063dd62ed3e146104eb578063de43156e1461051b578063e35a0db214610537578063eda650f2146105555761018e565b8063c5af46531461046d578063d61d59161461049d578063db298d64146104bb5761018e565b80639a99b4f014610397578063a2ff3480146103b3578063a457c2d7146103d1578063a9059cbb14610401578063b0544f8214610431578063bb88b7691461044f5761018e565b806351cff8d91161014b57806370a082311161012557806370a08231146102fb578063810085681461032b5780638b5320f71461035b57806395d89b41146103795761018e565b806351cff8d91461027d578063559dc257146102ad5780636b777d36146102cb5761018e565b806306fdde0314610193578063095ea7b3146101b157806318160ddd146101e157806323b872dd146101ff578063313ce5671461022f578063395093511461024d575b600080fd5b61019b610573565b6040516101a891906126d5565b60405180910390f35b6101cb60048036038101906101c69190612253565b610605565b6040516101d8919061264d565b60405180910390f35b6101e9610628565b6040516101f69190612817565b60405180910390f35b61021960048036038101906102149190612200565b610632565b604051610226919061264d565b60405180910390f35b610237610661565b6040516102449190612832565b60405180910390f35b61026760048036038101906102629190612253565b61066a565b604051610274919061264d565b60405180910390f35b61029760048036038101906102929190612166565b6106a1565b6040516102a49190612668565b60405180910390f35b6102b5610741565b6040516102c29190612817565b60405180910390f35b6102e560048036038101906102e09190612253565b610747565b6040516102f29190612817565b60405180910390f35b61031560048036038101906103109190612166565b61076c565b6040516103229190612817565b60405180910390f35b61034560048036038101906103409190612166565b6107b4565b6040516103529190612609565b60405180910390f35b6103636107e7565b6040516103709190612817565b60405180910390f35b6103816107ed565b60405161038e91906126d5565b60405180910390f35b6103b160048036038101906103ac9190612253565b61087f565b005b6103bb61099a565b6040516103c89190612817565b60405180910390f35b6103eb60048036038101906103e69190612253565b6109be565b6040516103f8919061264d565b60405180910390f35b61041b60048036038101906104169190612253565b610a35565b604051610428919061264d565b60405180910390f35b610439610a58565b6040516104469190612817565b60405180910390f35b610457610a5e565b60405161046491906126ba565b60405180910390f35b61048760048036038101906104829190612253565b610a82565b6040516104949190612817565b60405180910390f35b6104a5610c46565b6040516104b29190612817565b60405180910390f35b6104d560048036038101906104d09190612253565b610c6a565b6040516104e29190612817565b60405180910390f35b610505600480360381019061050091906121c0565b610c8f565b6040516105129190612817565b60405180910390f35b61053560048036038101906105309190612300565b610d16565b005b61053f610f26565b60405161054c9190612817565b60405180910390f35b61055d610f2c565b60405161056a9190612817565b60405180910390f35b60606003805461058290612ad7565b80601f01602080910402602001604051908101604052809291908181526020018280546105ae90612ad7565b80156105fb5780601f106105d0576101008083540402835291602001916105fb565b820191906000526020600020905b8154815290600101906020018083116105de57829003601f168201915b5050505050905090565b600080610610610f50565b905061061d818585610f58565b600191505092915050565b6000600254905090565b60008061063d610f50565b905061064a858285611123565b6106558585856111af565b60019150509392505050565b60006012905090565b600080610675610f50565b90506106968185856106878589610c8f565b6106919190612923565b610f58565b600191505092915050565b600b60205280600052604060002060009150905080546106c090612ad7565b80601f01602080910402602001604051908101604052809291908181526020018280546106ec90612ad7565b80156107395780601f1061070e57610100808354040283529160200191610739565b820191906000526020600020905b81548152906001019060200180831161071c57829003601f168201915b505050505081565b60085481565b600c602052816000526040600020602052806000526040600020600091509150505481565b60008060008373ffffffffffffffffffffffffffffffffffffffff1673ffffffffffffffffffffffffffffffffffffffff168152602001908152602001600020549050919050565b600a6020528060005260406000206000915054906101000a900473ffffffffffffffffffffffffffffffffffffffff1681565b60055481565b6060600480546107fc90612ad7565b80601f016020809104026020016040519081016040528092919081815260200182805461082890612ad7565b80156108755780601f1061084a57610100808354040283529160200191610875565b820191906000526020600020905b81548152906001019060200180831161085857829003601f168201915b5050505050905090565b3373ffffffffffffffffffffffffffffffffffffffff16600a60008473ffffffffffffffffffffffffffffffffffffffff1673ffffffffffffffffffffffffffffffffffffffff16815260200190815260200160002060009054906101000a900473ffffffffffffffffffffffffffffffffffffffff1673ffffffffffffffffffffffffffffffffffffffff1614610943576040517fea8e4eb500000000000000000000000000000000000000000000000000000000815260040160405180910390fd5b600061094f8383610a82565b90506000811161098b576040517f73380d9900000000000000000000000000000000000000000000000000000000815260040160405180910390fd5b6109958383611427565b505050565b7f000000000000000000000000000000000000000000000000000000000000000081565b6000806109c9610f50565b905060006109d78286610c8f565b905083811015610a1c576040517f08c379a0000000000000000000000000000000000000000000000000000000008152600401610a13906127d7565b60405180910390fd5b610a298286868403610f58565b60019250505092915050565b600080610a40610f50565b9050610a4d8185856111af565b600191505092915050565b60075481565b7f000000000000000000000000000000000000000000000000000000000000000081565b6000807f0000000000000000000000000000000000000000000000000000000000000000831415610ab7576005549050610b6f565b7f0000000000000000000000000000000000000000000000000000000000000000831415610ae9576006549050610b6e565b7f0000000000000000000000000000000000000000000000000000000000000000831415610b1b576007549050610b6d565b61479c831415610b2f576008549050610b6c565b826040517fbd407dda000000000000000000000000000000000000000000000000000000008152600401610b639190612817565b60405180910390fd5b5b5b5b6000600c60008673ffffffffffffffffffffffffffffffffffffffff1673ffffffffffffffffffffffffffffffffffffffff16815260200190815260200160002060008581526020019081526020016000205442610bcd91906129d3565b9050600082600960008873ffffffffffffffffffffffffffffffffffffffff1673ffffffffffffffffffffffffffffffffffffffff16815260200190815260200160002060008781526020019081526020016000205483610c2e9190612979565b610c389190612979565b905080935050505092915050565b7f000000000000000000000000000000000000000000000000000000000000000081565b6009602052816000526040600020602052806000526040600020600091509150505481565b6000600160008473ffffffffffffffffffffffffffffffffffffffff1673ffffffffffffffffffffffffffffffffffffffff16815260200190815260200160002060008373ffffffffffffffffffffffffffffffffffffffff1673ffffffffffffffffffffffffffffffffffffffff16815260200190815260200160002054905092915050565b7f000000000000000000000000000000000000000000000000000000000000000073ffffffffffffffffffffffffffffffffffffffff163373ffffffffffffffffffffffffffffffffffffffff1614610da4576040517f08c379a0000000000000000000000000000000000000000000000000000000008152600401610d9b90612737565b60405180910390fd5b6000610dc0868060000190610db9919061284d565b60006114f8565b9050600061479c876040013514610de5578383810190610de091906123a4565b610e07565b83836000818110610df957610df8612bb0565b5b9050013560f81c60f81b60f81c5b905060018160ff161415610e2957610e248286896040013561156d565b610f1d565b60028160ff161415610e4857610e43828860400135611740565b610f1c565b60038160ff161415610e6957610e648285858a60400135611c38565b610f1b565b60048160ff161415610edd57610ed88285858a8060000190610e8b919061284d565b8080601f016020809104026020016040519081016040528093929190818152602001838380828437600081840152601f19601f820116905080830192505050505050508b60400135611cf2565b610f1a565b806040517f60df9f87000000000000000000000000000000000000000000000000000000008152600401610f119190612832565b60405180910390fd5b5b5b5b50505050505050565b60065481565b7f000000000000000000000000000000000000000000000000000000000000000081565b600033905090565b600073ffffffffffffffffffffffffffffffffffffffff168373ffffffffffffffffffffffffffffffffffffffff161415610fc8576040517f08c379a0000000000000000000000000000000000000000000000000000000008152600401610fbf906127b7565b60405180910390fd5b600073ffffffffffffffffffffffffffffffffffffffff168273ffffffffffffffffffffffffffffffffffffffff161415611038576040517f08c379a000000000000000000000000000000000000000000000000000000000815260040161102f90612717565b60405180910390fd5b80600160008573ffffffffffffffffffffffffffffffffffffffff1673ffffffffffffffffffffffffffffffffffffffff16815260200190815260200160002060008473ffffffffffffffffffffffffffffffffffffffff1673ffffffffffffffffffffffffffffffffffffffff168152602001908152602001600020819055508173ffffffffffffffffffffffffffffffffffffffff168373ffffffffffffffffffffffffffffffffffffffff167f8c5be1e5ebec7d5bd14f71427d1e84f3dd0314c0f7b2291e5b200ac8c7c3b925836040516111169190612817565b60405180910390a3505050565b600061112f8484610c8f565b90507fffffffffffffffffffffffffffffffffffffffffffffffffffffffffffffffff81146111a9578181101561119b576040517f08c379a000000000000000000000000000000000000000000000000000000000815260040161119290612757565b60405180910390fd5b6111a88484848403610f58565b5b50505050565b600073ffffffffffffffffffffffffffffffffffffffff168373ffffffffffffffffffffffffffffffffffffffff16141561121f576040517f08c379a000000000000000000000000000000000000000000000000000000000815260040161121690612797565b60405180910390fd5b600073ffffffffffffffffffffffffffffffffffffffff168273ffffffffffffffffffffffffffffffffffffffff16141561128f576040517f08c379a0000000000000000000000000000000000000000000000000000000008152600401611286906126f7565b60405180910390fd5b61129a838383611d71565b60008060008573ffffffffffffffffffffffffffffffffffffffff1673ffffffffffffffffffffffffffffffffffffffff16815260200190815260200160002054905081811015611320576040517f08c379a000000000000000000000000000000000000000000000000000000000815260040161131790612777565b60405180910390fd5b8181036000808673ffffffffffffffffffffffffffffffffffffffff1673ffffffffffffffffffffffffffffffffffffffff16815260200190815260200160002081905550816000808573ffffffffffffffffffffffffffffffffffffffff1673ffffffffffffffffffffffffffffffffffffffff168152602001908152602001600020600082825401925050819055508273ffffffffffffffffffffffffffffffffffffffff168473ffffffffffffffffffffffffffffffffffffffff167fddf252ad1be2c89b69c2b068fc378daa952ba7f163c4a11628f55a4df523b3ef8460405161140e9190612817565b60405180910390a3611421848484611d76565b50505050565b60006114338383610a82565b905061149e600a60008573ffffffffffffffffffffffffffffffffffffffff1673ffffffffffffffffffffffffffffffffffffffff16815260200190815260200160002060009054906101000a900473ffffffffffffffffffffffffffffffffffffffff1682611d7b565b42600c60008573ffffffffffffffffffffffffffffffffffffffff1673ffffffffffffffffffffffffffffffffffffffff168152602001908152602001600020600084815260200190815260200160002081905550505050565b6000808484849060148661150c9190612923565b92611519939291906128e8565b8080601f016020809104026020016040519081016040528093929190818152602001838380828437600081840152601f19601f82011690508083019250505050505050905060148101519150509392505050565b81600960008573ffffffffffffffffffffffffffffffffffffffff1673ffffffffffffffffffffffffffffffffffffffff168152602001908152602001600020600083815260200190815260200160002060008282546115cd9190612923565b9250508190555081600960008573ffffffffffffffffffffffffffffffffffffffff1673ffffffffffffffffffffffffffffffffffffffff168152602001908152602001600020600083815260200190815260200160002054101561165e576040517f35278d1200000000000000000000000000000000000000000000000000000000815260040160405180910390fd5b82600a60008573ffffffffffffffffffffffffffffffffffffffff1673ffffffffffffffffffffffffffffffffffffffff16815260200190815260200160002060006101000a81548173ffffffffffffffffffffffffffffffffffffffff021916908373ffffffffffffffffffffffffffffffffffffffff16021790555042600c60008573ffffffffffffffffffffffffffffffffffffffff1673ffffffffffffffffffffffffffffffffffffffff16815260200190815260200160002060008381526020019081526020016000208190555061173b8382611427565b505050565b6000600960008473ffffffffffffffffffffffffffffffffffffffff1673ffffffffffffffffffffffffffffffffffffffff168152602001908152602001600020600083815260200190815260200160002054905061179f8383611427565b60007f000000000000000000000000000000000000000000000000000000000000000073ffffffffffffffffffffffffffffffffffffffff16630be15547846040518263ffffffff1660e01b81526004016117fa9190612817565b60206040518083038186803b15801561181257600080fd5b505afa158015611826573d6000803e3d6000fd5b505050506040513d601f19601f8201168201806040525081019061184a9190612193565b905060008173ffffffffffffffffffffffffffffffffffffffff1663d9eeebed6040518163ffffffff1660e01b8152600401604080518083038186803b15801561189357600080fd5b505afa1580156118a7573d6000803e3d6000fd5b505050506040513d601f19601f820116820180604052508101906118cb9190612293565b91505080831015611908576040517f49986e7300000000000000000000000000000000000000000000000000000000815260040160405180910390fd5b6000600b60008773ffffffffffffffffffffffffffffffffffffffff1673ffffffffffffffffffffffffffffffffffffffff168152602001908152602001600020805461195490612ad7565b80601f016020809104026020016040519081016040528092919081815260200182805461198090612ad7565b80156119cd5780601f106119a2576101008083540402835291602001916119cd565b820191906000526020600020905b8154815290600101906020018083116119b057829003601f168201915b505050505090506000600960008873ffffffffffffffffffffffffffffffffffffffff1673ffffffffffffffffffffffffffffffffffffffff1681526020019081526020016000206000878152602001908152602001600020819055508273ffffffffffffffffffffffffffffffffffffffff1663095ea7b384846040518363ffffffff1660e01b8152600401611a65929190612624565b602060405180830381600087803b158015611a7f57600080fd5b505af1158015611a93573d6000803e3d6000fd5b505050506040513d601f19601f82011682018060405250810190611ab791906122d3565b508273ffffffffffffffffffffffffffffffffffffffff1663c7012626828487611ae191906129d3565b6040518363ffffffff1660e01b8152600401611afe92919061268a565b602060405180830381600087803b158015611b1857600080fd5b505af1158015611b2c573d6000803e3d6000fd5b505050506040513d601f19601f82011682018060405250810190611b5091906122d3565b5083600960008873ffffffffffffffffffffffffffffffffffffffff1673ffffffffffffffffffffffffffffffffffffffff1681526020019081526020016000206000878152602001908152602001600020541115611bdb576040517fcaccb6d900000000000000000000000000000000000000000000000000000000815260040160405180910390fd5b42600c60008873ffffffffffffffffffffffffffffffffffffffff1673ffffffffffffffffffffffffffffffffffffffff168152602001908152602001600020600087815260200190815260200160002081905550505050505050565b600061479c821415611c5757611c50848460016114f8565b9050611c6d565b8383810190611c6691906123d1565b9050809150505b80600a60008773ffffffffffffffffffffffffffffffffffffffff1673ffffffffffffffffffffffffffffffffffffffff16815260200190815260200160002060006101000a81548173ffffffffffffffffffffffffffffffffffffffff021916908373ffffffffffffffffffffffffffffffffffffffff1602179055505050505050565b606061479c821415611d1157611d0a85856001611ed2565b9050611d15565b8290505b80600b60008873ffffffffffffffffffffffffffffffffffffffff1673ffffffffffffffffffffffffffffffffffffffff1681526020019081526020016000209080519060200190611d68929190611fbb565b50505050505050565b505050565b505050565b600073ffffffffffffffffffffffffffffffffffffffff168273ffffffffffffffffffffffffffffffffffffffff161415611deb576040517f08c379a0000000000000000000000000000000000000000000000000000000008152600401611de2906127f7565b60405180910390fd5b611df760008383611d71565b8060026000828254611e099190612923565b92505081905550806000808473ffffffffffffffffffffffffffffffffffffffff1673ffffffffffffffffffffffffffffffffffffffff168152602001908152602001600020600082825401925050819055508173ffffffffffffffffffffffffffffffffffffffff16600073ffffffffffffffffffffffffffffffffffffffff167fddf252ad1be2c89b69c2b068fc378daa952ba7f163c4a11628f55a4df523b3ef83604051611eba9190612817565b60405180910390a3611ece60008383611d76565b5050565b60606000602a67ffffffffffffffff811115611ef157611ef0612bdf565b5b6040519080825280601f01601f191660200182016040528015611f235781602001600182028036833780820191505090505b50905060005b602a811015611faf5785858583611f409190612923565b818110611f5057611f4f612bb0565b5b9050013560f81c60f81b828281518110611f6d57611f6c612bb0565b5b60200101907effffffffffffffffffffffffffffffffffffffffffffffffffffffffffffff1916908160001a9053508080611fa790612b09565b915050611f29565b50809150509392505050565b828054611fc790612ad7565b90600052602060002090601f016020900481019282611fe95760008555612030565b82601f1061200257805160ff1916838001178555612030565b82800160010185558215612030579182015b8281111561202f578251825591602001919060010190612014565b5b50905061203d9190612041565b5090565b5b8082111561205a576000816000905550600101612042565b5090565b60008135905061206d81612ed1565b92915050565b60008151905061208281612ed1565b92915050565b60008135905061209781612ee8565b92915050565b6000815190506120ac81612eff565b92915050565b60008083601f8401126120c8576120c7612c13565b5b8235905067ffffffffffffffff8111156120e5576120e4612c0e565b5b60208301915083600182028301111561210157612100612c31565b5b9250929050565b60006060828403121561211e5761211d612c1d565b5b81905092915050565b60008135905061213681612f16565b92915050565b60008151905061214b81612f16565b92915050565b60008135905061216081612f2d565b92915050565b60006020828403121561217c5761217b612c40565b5b600061218a8482850161205e565b91505092915050565b6000602082840312156121a9576121a8612c40565b5b60006121b784828501612073565b91505092915050565b600080604083850312156121d7576121d6612c40565b5b60006121e58582860161205e565b92505060206121f68582860161205e565b9150509250929050565b60008060006060848603121561221957612218612c40565b5b60006122278682870161205e565b93505060206122388682870161205e565b925050604061224986828701612127565b9150509250925092565b6000806040838503121561226a57612269612c40565b5b60006122788582860161205e565b925050602061228985828601612127565b9150509250929050565b600080604083850312156122aa576122a9612c40565b5b60006122b885828601612073565b92505060206122c98582860161213c565b9150509250929050565b6000602082840312156122e9576122e8612c40565b5b60006122f78482850161209d565b91505092915050565b60008060008060006080868803121561231c5761231b612c40565b5b600086013567ffffffffffffffff81111561233a57612339612c3b565b5b61234688828901612108565b95505060206123578882890161205e565b945050604061236888828901612127565b935050606086013567ffffffffffffffff81111561238957612388612c3b565b5b612395888289016120b2565b92509250509295509295909350565b6000602082840312156123ba576123b9612c40565b5b60006123c884828501612151565b91505092915050565b600080604083850312156123e8576123e7612c40565b5b60006123f685828601612151565b925050602061240785828601612088565b9150509250929050565b61241a81612a07565b82525050565b61242981612a2b565b82525050565b600061243a826128b0565b61244481856128c6565b9350612454818560208601612aa4565b61245d81612c45565b840191505092915050565b61247181612a6e565b82525050565b6000612482826128bb565b61248c81856128d7565b935061249c818560208601612aa4565b6124a581612c45565b840191505092915050565b60006124bd6023836128d7565b91506124c882612c56565b604082019050919050565b60006124e06022836128d7565b91506124eb82612ca5565b604082019050919050565b6000612503602b836128d7565b915061250e82612cf4565b604082019050919050565b6000612526601d836128d7565b915061253182612d43565b602082019050919050565b60006125496026836128d7565b915061255482612d6c565b604082019050919050565b600061256c6025836128d7565b915061257782612dbb565b604082019050919050565b600061258f6024836128d7565b915061259a82612e0a565b604082019050919050565b60006125b26025836128d7565b91506125bd82612e59565b604082019050919050565b60006125d5601f836128d7565b91506125e082612ea8565b602082019050919050565b6125f481612a57565b82525050565b61260381612a61565b82525050565b600060208201905061261e6000830184612411565b92915050565b60006040820190506126396000830185612411565b61264660208301846125eb565b9392505050565b60006020820190506126626000830184612420565b92915050565b60006020820190508181036000830152612682818461242f565b905092915050565b600060408201905081810360008301526126a4818561242f565b90506126b360208301846125eb565b9392505050565b60006020820190506126cf6000830184612468565b92915050565b600060208201905081810360008301526126ef8184612477565b905092915050565b60006020820190508181036000830152612710816124b0565b9050919050565b60006020820190508181036000830152612730816124d3565b9050919050565b60006020820190508181036000830152612750816124f6565b9050919050565b6000602082019050818103600083015261277081612519565b9050919050565b600060208201905081810360008301526127908161253c565b9050919050565b600060208201905081810360008301526127b08161255f565b9050919050565b600060208201905081810360008301526127d081612582565b9050919050565b600060208201905081810360008301526127f0816125a5565b9050919050565b60006020820190508181036000830152612810816125c8565b9050919050565b600060208201905061282c60008301846125eb565b92915050565b600060208201905061284760008301846125fa565b92915050565b6000808335600160200384360303811261286a57612869612c22565b5b80840192508235915067ffffffffffffffff82111561288c5761288b612c18565b5b6020830192506001820236038313156128a8576128a7612c36565b5b509250929050565b600081519050919050565b600081519050919050565b600082825260208201905092915050565b600082825260208201905092915050565b600080858511156128fc576128fb612c2c565b5b8386111561290d5761290c612c27565b5b6001850283019150848603905094509492505050565b600061292e82612a57565b915061293983612a57565b9250827fffffffffffffffffffffffffffffffffffffffffffffffffffffffffffffffff0382111561296e5761296d612b52565b5b828201905092915050565b600061298482612a57565b915061298f83612a57565b9250817fffffffffffffffffffffffffffffffffffffffffffffffffffffffffffffffff04831182151516156129c8576129c7612b52565b5b828202905092915050565b60006129de82612a57565b91506129e983612a57565b9250828210156129fc576129fb612b52565b5b828203905092915050565b6000612a1282612a37565b9050919050565b6000612a2482612a37565b9050919050565b60008115159050919050565b600073ffffffffffffffffffffffffffffffffffffffff82169050919050565b6000819050919050565b600060ff82169050919050565b6000612a7982612a80565b9050919050565b6000612a8b82612a92565b9050919050565b6000612a9d82612a37565b9050919050565b60005b83811015612ac2578082015181840152602081019050612aa7565b83811115612ad1576000848401525b50505050565b60006002820490506001821680612aef57607f821691505b60208210811415612b0357612b02612b81565b5b50919050565b6000612b1482612a57565b91507fffffffffffffffffffffffffffffffffffffffffffffffffffffffffffffffff821415612b4757612b46612b52565b5b600182019050919050565b7f4e487b7100000000000000000000000000000000000000000000000000000000600052601160045260246000fd5b7f4e487b7100000000000000000000000000000000000000000000000000000000600052602260045260246000fd5b7f4e487b7100000000000000000000000000000000000000000000000000000000600052603260045260246000fd5b7f4e487b7100000000000000000000000000000000000000000000000000000000600052604160045260246000fd5b600080fd5b600080fd5b600080fd5b600080fd5b600080fd5b600080fd5b600080fd5b600080fd5b600080fd5b600080fd5b600080fd5b6000601f19601f8301169050919050565b7f45524332303a207472616e7366657220746f20746865207a65726f206164647260008201527f6573730000000000000000000000000000000000000000000000000000000000602082015250565b7f45524332303a20617070726f766520746f20746865207a65726f20616464726560008201527f7373000000000000000000000000000000000000000000000000000000000000602082015250565b7f4f6e6c792073797374656d20636f6e74726163742063616e2063616c6c20746860008201527f69732066756e6374696f6e000000000000000000000000000000000000000000602082015250565b7f45524332303a20696e73756666696369656e7420616c6c6f77616e6365000000600082015250565b7f45524332303a207472616e7366657220616d6f756e742065786365656473206260008201527f616c616e63650000000000000000000000000000000000000000000000000000602082015250565b7f45524332303a207472616e736665722066726f6d20746865207a65726f20616460008201527f6472657373000000000000000000000000000000000000000000000000000000602082015250565b7f45524332303a20617070726f76652066726f6d20746865207a65726f2061646460008201527f7265737300000000000000000000000000000000000000000000000000000000602082015250565b7f45524332303a2064656372656173656420616c6c6f77616e63652062656c6f7760008201527f207a65726f000000000000000000000000000000000000000000000000000000602082015250565b7f45524332303a206d696e7420746f20746865207a65726f206164647265737300600082015250565b612eda81612a07565b8114612ee557600080fd5b50565b612ef181612a19565b8114612efc57600080fd5b50565b612f0881612a2b565b8114612f1357600080fd5b50565b612f1f81612a57565b8114612f2a57600080fd5b50565b612f3681612a61565b8114612f4157600080fd5b5056fea264697066735822122014de133f60df96f49c3bc3812d1de37889f11981d21e4bc6533485e276dd9d1264736f6c63430008070033",
  "linkReferences": {},
  "deployedLinkReferences": {}
}